S012000046616E436F6E74726F6C2E737265631C
S11300000C9438000C9455000C9455000C94550035
S11300100C9455000C9455000C9455000C94550008
S11300200C9455000C9455000C9455000C945500F8
S11300300C9455000C9455000C9455000C945500E8
S11300400C9455000C9455000C9455000C945500D8
S11300500C9455000C9455000C9455000C945500C8
S11300600C9455000C9455000C9455000C945500B8
S113007011241FBECFEFD4E0DEBFCDBF11E0A0E05E
S1130080B1E0E2EBF3E002C005900D92AA36B107AD
S1130090D9F721E0AAE6B1E001C01D92AA36B20761
S11300A0E1F70E9444010C94D7010C9400008BEFFB
S11300B082BB849908C081E19AE70197F1F700C0F7
S11300C0000081E30895859908C081E19AE70197CA
S11300D0F1F700C0000082E30895869908C081E129
S11300E09AE70197F1F700C0000083E3089587EFD2
S11300F082BB859908C081E19AE70197F1F700C0B6
S1130100000080E3089508959BB39F70282F207FFB
S1130110922B9BBB95B39E7F95BB95B39D7F95BB5F
S113012095B3946095BB000095B39B7F95BB31E27A
S11301303A95F1F700002BB330E1839FC0011124FD
S1130140922F9F70892B8BBB85B3846085BB000085
S113015085B38B7F85BB83EF91E00197F1F700C0F6
S11301600000089584B3876084BB8FEF8ABB85EA5F
S11301709EE00197F1F700C0000082E00E94840035
S113018088E20E9484008CE00E94840086E00E9441
S1130190840081E00E94840083EF91E00197F1F7ED
S11301A000C0000008959BB39F70282F207F922BDE
S11301B09BBB95B3916095BB95B39D7F95BB95B360
S11301C0946095BB000095B39B7F95BB31E23A9553
S11301D0F1F700002BB330E1839FC0011124922F6B
S11301E09F70892B8BBB85B3846085BB000085B36E
S11301F08B7F85BB83EF91E00197F1F700C000008E
S11302000895CF93DF93EC0103C021960E94D3009D
S113021088818111FACFDF91CF91089520E030E0F9
S113022008C0E9EFF0E03197F1F700C000002F5F5C
S11302303F4F28173907A8F308952CB53DB525304D
S1130240310509F418BA813049F42CB53DB524318F
S1130250310521F491E098BB1DBC1CBC823049F4EB
S11302602CB53DB52A30310521F491E098BB1DBC75
S11302701CBC833041F48CB59DB5059721F481E015
S113028088BB1DBC1CBC089581E087BB8EB585600E
S11302908EBD0E94B20080E80E94840081E091E05B
S11302A00E94010180ED97E00E940E0181E00E940E
S11302B0840080E80E94840089E091E00E940101AA
S11302C080ED97E00E940E0181E00E94840088E1A5
S11302D091E00E9401018FE081BB80EF82BB80EF3F
S11302E082BB80B3803F31F00E945700C82F80E367
S11302F080930001C133A1F480910001803361F443
S113030080E80E94840084E291E00E9401011DBC07
S11303101CBC81E38093000181E00E941D01DFCFBA
S1130320C233A1F480910001803361F480E80E941B
S1130330840085E391E00E9401011DBC1CBC81E3A3
S11303408093000182E00E941D01C9CFC333A1F450
S113035080910001803361F480E80E94840088E485
S113036091E00E9401011DBC1CBC81E3809300014B
S113037083E00E941D01B3CFC03309F0B0CF18BA97
S113038080910001803309F0AACF80E80E948400A4
S113039089E591E00E94010180ED97E00E940E0141
S11303A081E00E94840081E38093000198CFF89457
S10503B0FFCF79
S11303B23057656C636F6D650046616E20537461DE
S11303C27475733A204F4E00507265737320612026
S11303D26B65790046616E205374617475733A20BB
S11303E2536C6F770046616E205374617475733A6F
S11303F2204D656469756D0046616E2053746174A5
S113040275733A20466173740046616E20537461B9
S10D04127475733A204F464600004B
S9030000FC
